{
  "contractName": "Lottery",
  "abi": [
    {
      "inputs": [],
      "stateMutability": "nonpayable",
      "type": "constructor"
    },
    {
      "inputs": [],
      "name": "duration",
      "outputs": [
        {
          "internalType": "uint256",
          "name": "",
          "type": "uint256"
        }
      ],
      "stateMutability": "view",
      "type": "function",
      "constant": true
    },
    {
      "inputs": [],
      "name": "expiration",
      "outputs": [
        {
          "internalType": "uint256",
          "name": "",
          "type": "uint256"
        }
      ],
      "stateMutability": "view",
      "type": "function",
      "constant": true
    },
    {
      "inputs": [],
      "name": "lastWinner",
      "outputs": [
        {
          "internalType": "address",
          "name": "",
          "type": "address"
        }
      ],
      "stateMutability": "view",
      "type": "function",
      "constant": true
    },
    {
      "inputs": [],
      "name": "lastWinnerAmount",
      "outputs": [
        {
          "internalType": "uint256",
          "name": "",
          "type": "uint256"
        }
      ],
      "stateMutability": "view",
      "type": "function",
      "constant": true
    },
    {
      "inputs": [],
      "name": "lotteryOperator",
      "outputs": [
        {
          "internalType": "address",
          "name": "",
          "type": "address"
        }
      ],
      "stateMutability": "view",
      "type": "function",
      "constant": true
    },
    {
      "inputs": [],
      "name": "maxTickets",
      "outputs": [
        {
          "internalType": "uint256",
          "name": "",
          "type": "uint256"
        }
      ],
      "stateMutability": "view",
      "type": "function",
      "constant": true
    },
    {
      "inputs": [],
      "name": "operatorTotalCommission",
      "outputs": [
        {
          "internalType": "uint256",
          "name": "",
          "type": "uint256"
        }
      ],
      "stateMutability": "view",
      "type": "function",
      "constant": true
    },
    {
      "inputs": [],
      "name": "ticketCommission",
      "outputs": [
        {
          "internalType": "uint256",
          "name": "",
          "type": "uint256"
        }
      ],
      "stateMutability": "view",
      "type": "function",
      "constant": true
    },
    {
      "inputs": [],
      "name": "ticketPrice",
      "outputs": [
        {
          "internalType": "uint256",
          "name": "",
          "type": "uint256"
        }
      ],
      "stateMutability": "view",
      "type": "function",
      "constant": true
    },
    {
      "inputs": [
        {
          "internalType": "uint256",
          "name": "",
          "type": "uint256"
        }
      ],
      "name": "tickets",
      "outputs": [
        {
          "internalType": "address",
          "name": "",
          "type": "address"
        }
      ],
      "stateMutability": "view",
      "type": "function",
      "constant": true
    },
    {
      "inputs": [
        {
          "internalType": "address",
          "name": "",
          "type": "address"
        }
      ],
      "name": "winnings",
      "outputs": [
        {
          "internalType": "uint256",
          "name": "",
          "type": "uint256"
        }
      ],
      "stateMutability": "view",
      "type": "function",
      "constant": true
    },
    {
      "inputs": [],
      "name": "getTickets",
      "outputs": [
        {
          "internalType": "address[]",
          "name": "",
          "type": "address[]"
        }
      ],
      "stateMutability": "view",
      "type": "function",
      "constant": true
    },
    {
      "inputs": [
        {
          "internalType": "address",
          "name": "addr",
          "type": "address"
        }
      ],
      "name": "getWinningsForAddress",
      "outputs": [
        {
          "internalType": "uint256",
          "name": "",
          "type": "uint256"
        }
      ],
      "stateMutability": "view",
      "type": "function",
      "constant": true
    },
    {
      "inputs": [],
      "name": "BuyTickets",
      "outputs": [],
      "stateMutability": "payable",
      "type": "function",
      "payable": true
    },
    {
      "inputs": [],
      "name": "DrawWinnerTicket",
      "outputs": [],
      "stateMutability": "nonpayable",
      "type": "function"
    },
    {
      "inputs": [],
      "name": "restartDraw",
      "outputs": [],
      "stateMutability": "nonpayable",
      "type": "function"
    },
    {
      "inputs": [],
      "name": "checkWinningsAmount",
      "outputs": [
        {
          "internalType": "uint256",
          "name": "",
          "type": "uint256"
        }
      ],
      "stateMutability": "view",
      "type": "function",
      "constant": true
    },
    {
      "inputs": [],
      "name": "WithdrawWinnings",
      "outputs": [],
      "stateMutability": "nonpayable",
      "type": "function"
    },
    {
      "inputs": [],
      "name": "RefundAll",
      "outputs": [],
      "stateMutability": "nonpayable",
      "type": "function"
    },
    {
      "inputs": [],
      "name": "WithdrawCommission",
      "outputs": [],
      "stateMutability": "nonpayable",
      "type": "function"
    },
    {
      "inputs": [],
      "name": "IsWinner",
      "outputs": [
        {
          "internalType": "bool",
          "name": "",
          "type": "bool"
        }
      ],
      "stateMutability": "view",
      "type": "function",
      "constant": true
    },
    {
      "inputs": [],
      "name": "CurrentWinningReward",
      "outputs": [
        {
          "internalType": "uint256",
          "name": "",
          "type": "uint256"
        }
      ],
      "stateMutability": "view",
      "type": "function",
      "constant": true
    },
    {
      "inputs": [],
      "name": "RemainingTickets",
      "outputs": [
        {
          "internalType": "uint256",
          "name": "",
          "type": "uint256"
        }
      ],
      "stateMutability": "view",
      "type": "function",
      "constant": true
    }
  ],
  "bytecode": "0x608060405260006002553480156200001657600080fd5b5033600160006101000a81548173ffffffffffffffffffffffffffffffffffffffff021916908373ffffffffffffffffffffffffffffffffffffffff16021790555061070842620000689190620000ad565b600081905550620000e8565b6000819050919050565b7f4e487b7100000000000000000000000000000000000000000000000000000000600052601160045260246000fd5b6000620000ba8262000074565b9150620000c78362000074565b9250828201905080821115620000e257620000e16200007e565b5b92915050565b611b1c80620000f86000396000f3fe6080604052600436106101405760003560e01c806371827b7b116100b6578063ba946d791161006f578063ba946d79146103c1578063c6944fa0146103ec578063dd64e53414610417578063ea3a149914610454578063f261326914610491578063fe188184146104a857610140565b806371827b7b1461030857806391d8b14e1461031f57806393a563b51461032957806396c85ef3146103545780639b8947031461037f578063a88f4672146103aa57610140565b80634665096d116101085780634665096d146102085780634788af7c146102335780634ed026221461024a57806350b44712146102755780635a58acdd146102b25780636032a4f9146102dd57610140565b806306f7f3bf146101455780630789c607146101705780630fb5a6b41461019b5780631209b1f6146101c657806335580df2146101f1575b600080fd5b34801561015157600080fd5b5061015a6104d3565b60405161016791906111bf565b60405180910390f35b34801561017c57600080fd5b506101856104d9565b60405161019291906111bf565b60405180910390f35b3480156101a757600080fd5b506101b061052b565b6040516101bd91906111bf565b60405180910390f35b3480156101d257600080fd5b506101db610531565b6040516101e891906111bf565b60405180910390f35b3480156101fd57600080fd5b5061020661053c565b005b34801561021457600080fd5b5061021d61062b565b60405161022a91906111bf565b60405180910390f35b34801561023f57600080fd5b50610248610631565b005b34801561025657600080fd5b5061025f610905565b60405161026c91906112ca565b60405180910390f35b34801561028157600080fd5b5061029c6004803603810190610297919061131d565b610993565b6040516102a99190611359565b60405180910390f35b3480156102be57600080fd5b506102c76109d2565b6040516102d49190611359565b60405180910390f35b3480156102e957600080fd5b506102f26109f8565b6040516102ff91906111bf565b60405180910390f35b34801561031457600080fd5b5061031d610a03565b005b610327610b23565b005b34801561033557600080fd5b5061033e610c90565b60405161034b91906111bf565b60405180910390f35b34801561036057600080fd5b50610369610ca9565b604051610376919061138f565b60405180910390f35b34801561038b57600080fd5b50610394610cf2565b6040516103a191906111bf565b60405180910390f35b3480156103b657600080fd5b506103bf610cf7565b005b3480156103cd57600080fd5b506103d6610e60565b6040516103e391906111bf565b60405180910390f35b3480156103f857600080fd5b50610401610e66565b60405161040e91906111bf565b60405180910390f35b34801561042357600080fd5b5061043e600480360381019061043991906113d6565b610e85565b60405161044b91906111bf565b60405180910390f35b34801561046057600080fd5b5061047b600480360381019061047691906113d6565b610ece565b60405161048891906111bf565b60405180910390f35b34801561049d57600080fd5b506104a6610ee6565b005b3480156104b457600080fd5b506104bd610fe2565b6040516104ca9190611359565b60405180910390f35b60045481565b6000803390506000600560008373ffffffffffffffffffffffffffffffffffffffff1673ffffffffffffffffffffffffffffffffffffffff168152602001908152602001600020549050809250505090565b61070881565b662386f26fc1000081565b600160009054906101000a900473ffffffffffffffffffffffffffffffffffffffff1673ffffffffffffffffffffffffffffffffffffffff163373ffffffffffffffffffffffffffffffffffffffff16146105cc576040517f08c379a00000000000000000000000000000000000000000000000000000000081526004016105c390611486565b60405180910390fd5b60003390506000600254905060006002819055508173ffffffffffffffffffffffffffffffffffffffff166108fc829081150290604051600060405180830381858888f19350505050158015610626573d6000803e3d6000fd5b505050565b60005481565b600160009054906101000a900473ffffffffffffffffffffffffffffffffffffffff1673ffffffffffffffffffffffffffffffffffffffff163373ffffffffffffffffffffffffffffffffffffffff16146106c1576040517f08c379a00000000000000000000000000000000000000000000000000000000081526004016106b890611486565b60405180910390fd5b600060068054905011610709576040517f08c379a0000000000000000000000000000000000000000000000000000000008152600401610700906114f2565b60405180910390fd5b60006006805490504361071c9190611541565b409050600042826040516020016107349291906115c1565b6040516020818303038152906040528051906020012060001c9050600060068054905082610762919061161c565b905060006006828154811061077a5761077961164d565b5b9060005260206000200160009054906101000a900473ffffffffffffffffffffffffffffffffffffffff16905080600360006101000a81548173ffffffffffffffffffffffffffffffffffffffff021916908373ffffffffffffffffffffffffffffffffffffffff16021790555066038d7ea4c68000662386f26fc100006108029190611541565b600680549050610812919061167c565b600560008373ffffffffffffffffffffffffffffffffffffffff1673ffffffffffffffffffffffffffffffffffffffff168152602001908152602001600020600082825461086091906116d6565b92505081905550600560008273ffffffffffffffffffffffffffffffffffffffff1673ffffffffffffffffffffffffffffffffffffffff1681526020019081526020016000205460048190555066038d7ea4c680006006805490506108c5919061167c565b600260008282546108d691906116d6565b92505081905550600660006108eb9190611168565b610708426108f991906116d6565b60008190555050505050565b6060600680548060200260200160405190810160405280929190818152602001828054801561098957602002820191906000526020600020905b8160009054906101000a900473ffffffffffffffffffffffffffffffffffffffff1673ffffffffffffffffffffffffffffffffffffffff168152602001906001019080831161093f575b5050505050905090565b600681815481106109a357600080fd5b906000526020600020016000915054906101000a900473ffffffffffffffffffffffffffffffffffffffff1681565b600160009054906101000a900473ffffffffffffffffffffffffffffffffffffffff1681565b66038d7ea4c6800081565b610a0b610ca9565b610a4a576040517f08c379a0000000000000000000000000000000000000000000000000000000008152600401610a4190611756565b60405180910390fd5b60003390506000600560008373ffffffffffffffffffffffffffffffffffffffff1673ffffffffffffffffffffffffffffffffffffffff1681526020019081526020016000205490506000600560008473ffffffffffffffffffffffffffffffffffffffff1673ffffffffffffffffffffffffffffffffffffffff168152602001908152602001600020819055508173ffffffffffffffffffffffffffffffffffffffff166108fc829081150290604051600060405180830381858888f19350505050158015610b1e573d6000803e3d6000fd5b505050565b6000662386f26fc1000034610b38919061161c565b14610b49662386f26fc10000611008565b604051602001610b599190611833565b60405160208183030381529060405290610ba9576040517f08c379a0000000000000000000000000000000000000000000000000000000008152600401610ba091906118b2565b60405180910390fd5b506000662386f26fc1000034610bbf91906118d4565b9050610bc9610c90565b811115610c0b576040517f08c379a0000000000000000000000000000000000000000000000000000000008152600401610c0290611951565b60405180910390fd5b60005b81811015610c8c576006339080600181540180825580915050600190039060005260206000200160009091909190916101000a81548173ffffffffffffffffffffffffffffffffffffffff021916908373ffffffffffffffffffffffffffffffffffffffff1602179055508080610c8490611971565b915050610c0e565b5050565b60006006805490506064610ca49190611541565b905090565b600080600560003373ffffffffffffffffffffffffffffffffffffffff1673ffffffffffffffffffffffffffffffffffffffff1681526020019081526020016000205411905090565b606481565b600054421015610d3c576040517f08c379a0000000000000000000000000000000000000000000000000000000008152600401610d3390611a05565b60405180910390fd5b60005b600680549050811015610e4f57600060068281548110610d6257610d6161164d565b5b9060005260206000200160009054906101000a900473ffffffffffffffffffffffffffffffffffffffff169050600060068381548110610da557610da461164d565b5b9060005260206000200160006101000a81548173ffffffffffffffffffffffffffffffffffffffff021916908373ffffffffffffffffffffffffffffffffffffffff1602179055508073ffffffffffffffffffffffffffffffffffffffff166108fc662386f26fc100009081150290604051600060405180830381858888f19350505050158015610e3a573d6000803e3d6000fd5b50508080610e4790611971565b915050610d3f565b5060066000610e5e9190611168565b565b60025481565b6000662386f26fc10000600680549050610e80919061167c565b905090565b6000600560008373ffffffffffffffffffffffffffffffffffffffff1673ffffffffffffffffffffffffffffffffffffffff168152602001908152602001600020549050919050565b60056020528060005260406000206000915090505481565b600160009054906101000a900473ffffffffffffffffffffffffffffffffffffffff1673ffffffffffffffffffffffffffffffffffffffff163373ffffffffffffffffffffffffffffffffffffffff1614610f76576040517f08c379a0000000000000000000000000000000000000000000000000000000008152600401610f6d90611486565b60405180910390fd5b600060068054905014610fbe576040517f08c379a0000000000000000000000000000000000000000000000000000000008152600401610fb590611a97565b60405180910390fd5b60066000610fcc9190611168565b61070842610fda91906116d6565b600081905550565b600360009054906101000a900473ffffffffffffffffffffffffffffffffffffffff1681565b60606000820361104f576040518060400160405280600181526020017f30000000000000000000000000000000000000000000000000000000000000008152509050611163565b600082905060005b6000821461108157808061106a90611971565b915050600a8261107a91906118d4565b9150611057565b60008167ffffffffffffffff81111561109d5761109c611ab7565b5b6040519080825280601f01601f1916602001820160405280156110cf5781602001600182028036833780820191505090505b5090505b6000851461115c576001826110e89190611541565b9150600a856110f7919061161c565b603061110391906116d6565b60f81b8183815181106111195761111861164d565b5b60200101907effffffffffffffffffffffffffffffffffffffffffffffffffffffffffffff1916908160001a905350600a8561115591906118d4565b94506110d3565b8093505050505b919050565b50805460008255906000526020600020908101906111869190611189565b50565b5b808211156111a257600081600090555060010161118a565b5090565b6000819050919050565b6111b9816111a6565b82525050565b60006020820190506111d460008301846111b0565b92915050565b600081519050919050565b600082825260208201905092915050565b6000819050602082019050919050565b600073ffffffffffffffffffffffffffffffffffffffff82169050919050565b600061123182611206565b9050919050565b61124181611226565b82525050565b60006112538383611238565b60208301905092915050565b6000602082019050919050565b6000611277826111da565b61128181856111e5565b935061128c836111f6565b8060005b838110156112bd5781516112a48882611247565b97506112af8361125f565b925050600181019050611290565b5085935050505092915050565b600060208201905081810360008301526112e4818461126c565b905092915050565b600080fd5b6112fa816111a6565b811461130557600080fd5b50565b600081359050611317816112f1565b92915050565b600060208284031215611333576113326112ec565b5b600061134184828501611308565b91505092915050565b61135381611226565b82525050565b600060208201905061136e600083018461134a565b92915050565b60008115159050919050565b61138981611374565b82525050565b60006020820190506113a46000830184611380565b92915050565b6113b381611226565b81146113be57600080fd5b50565b6000813590506113d0816113aa565b92915050565b6000602082840312156113ec576113eb6112ec565b5b60006113fa848285016113c1565b91505092915050565b600082825260208201905092915050565b7f43616c6c6572206973206e6f7420746865206c6f7474657279206f706572617460008201527f6f72000000000000000000000000000000000000000000000000000000000000602082015250565b6000611470602283611403565b915061147b82611414565b604082019050919050565b6000602082019050818103600083015261149f81611463565b9050919050565b7f4e6f207469636b65747320776572652070757263686173656400000000000000600082015250565b60006114dc601983611403565b91506114e7826114a6565b602082019050919050565b6000602082019050818103600083015261150b816114cf565b9050919050565b7f4e487b7100000000000000000000000000000000000000000000000000000000600052601160045260246000fd5b600061154c826111a6565b9150611557836111a6565b925082820390508181111561156f5761156e611512565b5b92915050565b6000819050919050565b61159061158b826111a6565b611575565b82525050565b6000819050919050565b6000819050919050565b6115bb6115b682611596565b6115a0565b82525050565b60006115cd828561157f565b6020820191506115dd82846115aa565b6020820191508190509392505050565b7f4e487b7100000000000000000000000000000000000000000000000000000000600052601260045260246000fd5b6000611627826111a6565b9150611632836111a6565b925082611642576116416115ed565b5b828206905092915050565b7f4e487b7100000000000000000000000000000000000000000000000000000000600052603260045260246000fd5b6000611687826111a6565b9150611692836111a6565b9250817fffffffffffffffffffffffffffffffffffffffffffffffffffffffffffffffff04831182151516156116cb576116ca611512565b5b828202905092915050565b60006116e1826111a6565b91506116ec836111a6565b925082820190508082111561170457611703611512565b5b92915050565b7f43616c6c6572206973206e6f7420612077696e6e657200000000000000000000600082015250565b6000611740601683611403565b915061174b8261170a565b602082019050919050565b6000602082019050818103600083015261176f81611733565b9050919050565b7f7468652076616c7565206d757374206265206d756c7469706c65206f66200000815250565b600081519050919050565b600081905092915050565b60005b838110156117d05780820151818401526020810190506117b5565b60008484015250505050565b60006117e78261179c565b6117f181856117a7565b93506118018185602086016117b2565b80840191505092915050565b7f2045746865720000000000000000000000000000000000000000000000000000815250565b600061183e82611776565b601e8201915061184e82846117dc565b91506118598261180d565b60068201915081905092915050565b6000601f19601f8301169050919050565b60006118848261179c565b61188e8185611403565b935061189e8185602086016117b2565b6118a781611868565b840191505092915050565b600060208201905081810360008301526118cc8184611879565b905092915050565b60006118df826111a6565b91506118ea836111a6565b9250826118fa576118f96115ed565b5b828204905092915050565b7f4e6f7420656e6f756768207469636b65747320617661696c61626c652e000000600082015250565b600061193b601d83611403565b915061194682611905565b602082019050919050565b6000602082019050818103600083015261196a8161192e565b9050919050565b600061197c826111a6565b91507fffffffffffffffffffffffffffffffffffffffffffffffffffffffffffffffff82036119ae576119ad611512565b5b600182019050919050565b7f746865206c6f7474657279206e6f742065787069726564207965740000000000600082015250565b60006119ef601b83611403565b91506119fa826119b9565b602082019050919050565b60006020820190508181036000830152611a1e816119e2565b9050919050565b7f43616e6e6f74205265737461727420447261772061732044726177206973206960008201527f6e20706c61790000000000000000000000000000000000000000000000000000602082015250565b6000611a81602683611403565b9150611a8c82611a25565b604082019050919050565b60006020820190508181036000830152611ab081611a74565b9050919050565b7f4e487b7100000000000000000000000000000000000000000000000000000000600052604160045260246000fdfea264697066735822122006ecd4fd926e147fe4e9d99e500e7a23e5f619d8457a7f893d99f28e3aa14cde64736f6c63430008100033",
  "immutableReferences": {},
  "source": "// SPDX-License-Identifier: GPL-3.0\r\nimport \"@openzeppelin/contracts/utils/Strings.sol\";\r\n\r\npragma solidity >=0.8.0 <0.9.0;\r\n\r\ncontract Lottery {\r\n    uint256 public constant ticketPrice = 0.01 ether;\r\n    uint256 public constant maxTickets = 100; // maximum tickets per lottery\r\n    uint256 public constant ticketCommission = 0.001 ether; // commition per ticket\r\n    uint256 public constant duration = 30 minutes; // The duration set for the lottery\r\n\r\n    uint256 public expiration; // Timeout in case That the lottery was not carried out.\r\n    address public lotteryOperator; // the crator of the lottery\r\n    uint256 public operatorTotalCommission = 0; // the total commission balance\r\n    address public lastWinner; // the last winner of the lottery\r\n    uint256 public lastWinnerAmount; // the last winner amount of the lottery\r\n\r\n    mapping(address => uint256) public winnings; // maps the winners to there winnings\r\n    address[] public tickets; //array of purchased Tickets\r\n\r\n    // modifier to check if caller is the lottery operator\r\n    modifier isOperator() {\r\n        require(\r\n            (msg.sender == lotteryOperator),\r\n            \"Caller is not the lottery operator\"\r\n        );\r\n        _;\r\n    }\r\n\r\n    // modifier to check if caller is a winner\r\n    modifier isWinner() {\r\n        require(IsWinner(), \"Caller is not a winner\");\r\n        _;\r\n    }\r\n\r\n    constructor() {\r\n        lotteryOperator = msg.sender;\r\n        expiration = block.timestamp + duration;\r\n    }\r\n\r\n    // return all the tickets\r\n    function getTickets() public view returns (address[] memory) {\r\n        return tickets;\r\n    }\r\n\r\n    function getWinningsForAddress(address addr) public view returns (uint256) {\r\n        return winnings[addr];\r\n    }\r\n\r\n    function BuyTickets() public payable {\r\n        require(\r\n            msg.value % ticketPrice == 0,\r\n            string.concat(\r\n                \"the value must be multiple of \",\r\n                Strings.toString(ticketPrice),\r\n                \" Ether\"\r\n            )\r\n        );\r\n        uint256 numOfTicketsToBuy = msg.value / ticketPrice;\r\n\r\n        require(\r\n            numOfTicketsToBuy <= RemainingTickets(),\r\n            \"Not enough tickets available.\"\r\n        );\r\n\r\n        for (uint256 i = 0; i < numOfTicketsToBuy; i++) {\r\n            tickets.push(msg.sender);\r\n        }\r\n    }\r\n\r\n    function DrawWinnerTicket() public isOperator {\r\n        require(tickets.length > 0, \"No tickets were purchased\");\r\n\r\n        bytes32 blockHash = blockhash(block.number - tickets.length);\r\n        uint256 randomNumber = uint256(\r\n            keccak256(abi.encodePacked(block.timestamp, blockHash))\r\n        );\r\n        uint256 winningTicket = randomNumber % tickets.length;\r\n\r\n        address winner = tickets[winningTicket];\r\n        lastWinner = winner;\r\n        winnings[winner] += (tickets.length * (ticketPrice - ticketCommission));\r\n        lastWinnerAmount = winnings[winner];\r\n        operatorTotalCommission += (tickets.length * ticketCommission);\r\n        delete tickets;\r\n        expiration = block.timestamp + duration;\r\n    }\r\n\r\n    function restartDraw() public isOperator {\r\n        require(tickets.length == 0, \"Cannot Restart Draw as Draw is in play\");\r\n\r\n        delete tickets;\r\n        expiration = block.timestamp + duration;\r\n    }\r\n\r\n    function checkWinningsAmount() public view returns (uint256) {\r\n        address payable winner = payable(msg.sender);\r\n\r\n        uint256 reward2Transfer = winnings[winner];\r\n\r\n        return reward2Transfer;\r\n    }\r\n\r\n    function WithdrawWinnings() public isWinner {\r\n        address payable winner = payable(msg.sender);\r\n\r\n        uint256 reward2Transfer = winnings[winner];\r\n        winnings[winner] = 0;\r\n\r\n        winner.transfer(reward2Transfer);\r\n    }\r\n\r\n    function RefundAll() public {\r\n        require(block.timestamp >= expiration, \"the lottery not expired yet\");\r\n\r\n        for (uint256 i = 0; i < tickets.length; i++) {\r\n            address payable to = payable(tickets[i]);\r\n            tickets[i] = address(0);\r\n            to.transfer(ticketPrice);\r\n        }\r\n        delete tickets;\r\n    }\r\n\r\n    function WithdrawCommission() public isOperator {\r\n        address payable operator = payable(msg.sender);\r\n\r\n        uint256 commission2Transfer = operatorTotalCommission;\r\n        operatorTotalCommission = 0;\r\n\r\n        operator.transfer(commission2Transfer);\r\n    }\r\n\r\n    function IsWinner() public view returns (bool) {\r\n        return winnings[msg.sender] > 0;\r\n    }\r\n\r\n    function CurrentWinningReward() public view returns (uint256) {\r\n        return tickets.length * ticketPrice;\r\n    }\r\n\r\n    function RemainingTickets() public view returns (uint256) {\r\n        return maxTickets - tickets.length;\r\n    }\r\n}",
  "sourcePath": "D:\\Github\\Web3 Projects\\Sonny Sangha\\Web3 Lottery Project\\smar_contracts\\contracts\\Lottery.sol",
  "compiler": {
    "name": "solc",
    "version": "0.8.16+commit.07a7930e.Emscripten.clang"
  },
  "schemaVersion": "3.4.9",
  "updatedAt": "2022-10-05T09:37:04.445Z",
  "networkType": "ethereum",
  "devdoc": {
    "kind": "dev",
    "methods": {},
    "version": 1
  },
  "userdoc": {
    "kind": "user",
    "methods": {},
    "version": 1
  }
}